:040000000C94D50186
:040024000C94C8066A
:04002C000C94FF072A
:14005400B305BC09C209C809CE09D409DF09ED09D809E6091D
:140068000C0A020AFB09F40986027E0648068F0278064206B0
:14007C007C027206540672026C064E06F00D00202020202049
:1400900020202020303030303020202020202020202020208C
:1400A4002020202020202090404040404040404040404040D8
:1400B8004040400C0C0C0C0C0C0C0C0C0C404040404040403C
:1400CC000909090909090101010101010101010101010101DC
:1400E0000101010101014040404040400A0A0A0A0A0A020246
:1400F400020202020202020202020202020202020202404054
:14010800404020000000000000000000000000000000000043
:14011C000000000000000000000000000000000000000000CF
:140130000000000000000000000000000000000000000000BB
:140144000000000000000000000000000000000000000000A7
:14015800000000000000000000000000000000000000000093
:14016C0000000000000000000000000000000000000000007F
:140180000000000000000000000000286E756C6C2070747212
:14019400207061737365642900696E7465676572206F6E6C37
:1401A80079207072696E74662C2073656C6563742050726FFA
:1401BC006A6563742D3E4F7074696F6E732D3E5461726765D4
:1401D000742C224650207072696E74662220746F2070726980
:1401E4006E7420666C6F6174696E6720706F696E74206E7564
:1401F8006D626572733E00000000000000000000000000009C
:14020C000000000000000000000000000000000000000000DE
:140220000000000000000000000000000000000000000000CA
:140234000000000000000000000000000000000000000000B6
:140248000000000000000000000000000000000000000000A2
:14025C0000000000000000000000000000000000000000008E
:1402700000000000000000000000000000000000000000007A
:14028400000000000000000000000000000000000000004125
:14029800434B0D0A00000000004C454E5F4552520D0A00432C
:1402AC00484B5F4552520D0A0049444C450D0A000000005FB8
:1402C0004F4B0D0A00000000004C494D5F410D0A4C494D5F9F
:1402D400420D0A43484152470D0A000000554C4C494E4B0D65
:1402E8000A0000656E657267792E5468726573686F6C655F33
:1402FC00746F703A25640D0A00656E657267792E5468726576
:1403100073686F6C655F626F74746F6D3A25640D0A00656E1D
:14032400657267792E43757272656E745F656E657267793ADA
:1403380025640D0A0073706565642E4D696E53706565645F5E
:14034C006C6966743A25640D0A0073706565642E4D696E535E
:14036000706565645F77616C6B3A25640D0A007370656564F2
:140374002E4D617853706565645F6C6966743A25640D0A0048
:1403880073706565642E4D617853706565645F77616C6B3AC3
:14039C0025640D0A00007374617274656E64CFE5D4E0CDBF54
:1403B000DEBFCE51D0400AEA08830024EBE0F2E013E0EE3319
:1403C400F10711F00192FBCF0083EFEFF1E0A0E6B0E013E094
:1403D80000E00BBFEA3AF10721F0C89531960D92F9CF0E940D
:1403EC00D108FFCFD098D89880E487B980E886B90895AA925A
:14040000BA92369A01C0A895349BFDCFA4B0BB2425B13327D0
:1404140000E011E00E94E80AA00EB11E05E010E00E948207F2
:140428008501B990A99008950E941A0B4427CC24DD24AA242A
:14043C00BB24DFDF7801809174008A3078F4282E8F5F809394
:14045000740080E690E0E22DFF27EE0FFF1FE80FF91FF1827C
:14046400E08231C044271FC0A89580E690E0E42FFF27EE0F9E
:14047800FF1FE80FF91F20803180C20CD31CE42FFF27319635
:14048C00EE0FFF1FE80FF91F20803180E42FFF27EE0FFF1F8D
:1404A000E80FF91F3182208243954930F8F2A7DF7801F09228
:1404B4007300E0927200C00ED11E2AE030E086010E94640A6F
:1404C80058010C94040B2017310718F4021B130B04C0190184
:1404DC00201A310A81010895DB9ADA9A009121021091220216
:1404F0000E948207DC9A0895DB98DA9A00912102109122025A
:140504000E948207DC9A0895DD9800912102109122020E9415
:140518008207DE980895DD9A00912102109122020E94820718
:14052C00DE98089500270E940907DA98DC98089501E00E94C9
:140540000907DE9A0895F4DFF9CF0E941A0B59017801249792
:14055400CC84DD844427552700270E9409072090F50022203B
:1405680029F4F6010E94570B002311F4E5D172C0F5010E94BF
:14057C00570B002331F025E00AE211E00E94EE0767C0F7012D
:140590000E94570BDB82CA82B982A882222700270E941C0710
:1405A400F5010E94570BE02E002331F0BFDF0AE211E00E94DA
:1405B800BF084BC005E010E00E94820739C0A8954F5F5F4FCB
:1405CC000AE010E00E9482074039E1E05E0710F040E951E01D
:1405E000F6010E94570BE02E002359F404E110E00E9482078E
:1405F400F6010E94570BE02E002309F41CC0009113021091A7
:140608001402ACD0F5010E94570BE02E002381F00AE010E0D6
:14061C000E948207F5010E94570BE02E002331F081DF0AE207
:1406300011E00E94BF080DC0C6CF4039E1E05E0740F0DB82CE
:14064400CA82B982A882222701E00E941C076EDF08E512E0D6
:140658000E94820724960C94040B0E941A0B590178012497A5
:14066C00CC84DD844427552701E00E9409070AE010E00E94D3
:1406800082072090F500222029F4F6010E94570B002311F4B6
:1406940055D163C0F5010E94570B002329F001E311E00E945C
:1406A800BF0859C0F7010E94570BDB82CA82B982A88221E053
:1406BC0000270E941C07F5010E94570BE02E002309F435C021
:1406D00035DF01E311E00E94BF083CC0A8954F5F5F4F0AE045
:1406E40010E00E9482074039E1E05E0710F040E951E0F601F7
:1406F8000E94570BE02E002359F40AE010E00E948207F60170
:14070C000E94570BE02E002309F412C000911102109112027C
:1407200021D0F5010E94570BE02E002331F006DF01E311E0CE
:140734000E94BF080DC0D0CF4039E1E05E0740F0DB82CA8264
:14074800B982A88221E001E00E941C07F3DE08E512E00E943F
:14075C00820724960C94040BAA92BA92580185010E94A807DF
:14077000B990A99008950E94450B5901402F289763E080E039
:140784008C838D838E838F83CC24DD2400270E9409070AE06B
:1407980010E00E9482072090F500222011F0CCD048C0F501B0
:1407AC000E94570B002329F00AE211E00E94BF083EC0423043
:1407C00011F49ADE01C08EDE84E590E09B838A83B982A88212
:1407D400222700270E941C07F5010E94570B002331F0A4DE1C
:1407E8000AE211E00E94BF081FC005E010E00E94820719C0FF
:1407FC008E010C5F1F4FDBD0C02E002309F412C00091130250
:1408100010911402A7DFF5010E94570BC02E002331F086DE07
:140824000AE211E00E94BF0801C0E6CF7FDE08E512E00E9426
:14083800820728960C944E0B0E94450B5901402F289761E0B1
:14084C00CC24DD2480E08C838D838E838F8301E00E94090772
:140860002090F500222029F4F5010E94570B002311F066D02C
:1408740044C0F5010E94570B002329F001E311E00E94BF08F8
:140888003AC0433011F43EDE01C045DE84E590E09B838A83E6
:14089C00B982A88221E000270E941C07F5010E94570BC02E0E
:1408B0000023F9F043DE01E311E00E94BF081AC08E010C5FF5
:1408C4001F4F79D0C02E002309F412C0009111021091120230
:1408D80045DFF5010E94570BC02E002331F02ADE01E311E0DF
:1408EC000E94BF0801C0E6CF23DE08E512E00E948207289650
:140900000C944E0BAA92A02E8091F500813029F4D998222455
:140914002092F50004C0D99A81E08093F5000ED0AA2031F0BF
:1409280001C0A8950E9460060023D9F704E610E00E948207BD
:14093C00A9900895979A02E310E00E94820797980895DC9860
:14095000DE9AD098D8988AB38E6F8ABBDC98DE9AD998DA98F5
:14096400222424BA8FEF85BBA79A8F9A8E9A969A97988A988A
:140978008B988C988D98939A929A949A959AAF9A0895AF981C
:14098C002090F500222031F4222433243092F7002092F6004D
:1409A000A8950895AF9A08EC10E00C948207A8958FE181BD28
:1409B4008FE081BD08950E94370B58012197222428824FEFC2
:1409C800A895F50180E080838183828383838E010E948E08AF
:1409DC00B8010030010711F40FEF62C08881853031F002E030
:1409F00011E00E94BF080FEF59C0FB01408124803324442462
:140A04005524F5010081118122813381020D131D241D351D33
:140A180088E190E08A930E94690BF501008311832283338356
:140A2C00FB012380332444245524F501608071808280938003
:140A4000620C731C841C951C43016624772460827182828212
:140A54009382FB012280332444245524F501008111812281F7
:140A68003381020D131D241D351D88E090E08A930E94690BE9
:140A7C00F5010083118322833383FB01218033244424552429
:140A9000F5016080718082809380620C731C841C951C608246
:140AA400718282829382042F21960C943E0B08950E94370BDE
:140AB800662777278BE092E05C0144270CC0E42FFF27EA0D5E
:140ACC00FB1D20811B016F5F7F4F81010E9428064395463005
:140AE00090F381E192E05C0144270CC0E42FFF27EA0DFB1DCF
:140AF40020811B016F5F7F4F81010E9428064395423190F375
:140B08000C943E0B0E94450B662777278BE092E05C0144272E
:140B1C000CC01B016F5F7F4F81010E943B06E42FFF27EA0DAC
:140B3000FB1D00834395463090F381E192E05C0144270DC0DC
:140B44006B016F5F7F4F86010E943B06C02EE42FFF27EA0D0D
:140B5800FB1DC0824395423188F30C944E0B01E00895229739
:140B6C0020901102309012023982288229EE31E005E710E075
:140B80000E94FA0D05E710E00E94BF082090130230901402D8
:140B94003982288220ED31E005E710E00E94FA0D05E710E069
:140BA8000E94BF0820901502309016023982288227EB31E0A9
:140BBC0005E710E00E94FA0D05E710E00E94BF082090170292
:140BD00030901802398228822EE931E005E710E00E94FA0D25
:140BE40005E710E00E94BF0820900B0230900C0239822882C8
:140BF80023E831E005E710E00E94FA0D05E710E00E94BF0803
:140C0C0020900F02309010023982288226E631E005E710E0E3
:140C20000E94FA0D05E710E00E94BF0820900D0230900E0243
:140C3400398228822CE431E005E710E00E94FA0D05E710E0C5
:140C48000E94BF08229608950E941E0BA22E6801E199FECF8F
:140C5C00DFBACEBAADBAE29AF894E19A789401E010E00E94FA
:140C700082070C94F80AE199FECF1FBB0EBBE09A0DB3089584
:140C8400989B02C0002701C001E00895999B02C0002701C023
:140C980001E008959C9B02C0002701C001E008959D9B02C071
:140CAC00002701C001E008959A9B02C0002701C001E0089571
:140CC0009B9B02C0002701C001E008959E9B02C0002701C0DF
:140CD40001E00895829B02C0002701C001E00895839B02C069
:140CE800002701C001E00895859B02C0002701C001E008954A
:140CFC00849B02C0002701C001E0089583B38F738F3311F49E
:140D1000002701C001E00895002723B333272F7330702F326F
:140D2400E0E03E0709F18FE290E0821793072CF02F31E0E06C
:140D38003E07D1F01AC02733E0E03E0789F02B33E0E03E078C
:140D4C0091F02D33E0E03E0739F02E33E0E03E0709F009C05C
:140D600004E007C003E005C005E003C001E001C002E0089563
:140D7400222423BE82EB82BF89B7816089BF88B7816088BFC6
:140D880085E083BF789408952A923A928A939A93AA93EA937B
:140D9C002FB62A9282EB82BF8091F6009091F700019690931B
:140DB000F7008093F6008035E6E49E0770F02090F5002220C4
:140DC40021F4D99A81E08093F500222433243092F700209222
:140DD800F60029902FBEE991A9919991899139902990189544
:140DEC000E94230B402F413029F4A0901102B090120204C0CB
:140E0000A0901302B090140285010E94A8070C94280B0E94F7
:140E1400230B402F413029F4A0901502B090160204C0A0900C
:140E28001702B090180285010E94A8070C94280B0E94180BD4
:140E3C00622F402F2497AA2480E0888389838A838B83A8954A
:140E5000613069F46091110270911202A0901502B0901602E8
:140E6400C0901902D0901A020CC06091130270911402A0907A
:140E78001702B0901802C0901D02D0901E02413009F421C0B5
:140E8C00A5011BC08A010E94A80786010E948207EE85FF854C
:140EA0000E94570B002361F48E010E94DD04002339F0E889F3
:140EB400F9890E94570BE02E002309F41CC04F5F5F4F4617E1
:140EC800570710F318C0AB0110C08A010E94A80786010E945C
:140EDC008207EE85FF850E94570B602F002309F006C041507C
:140EF00050404A155B0568F302C00E94A30224960C940D0BC9
:140F04000E942D0B66277727442755270CC06627772702C034
:140F18006F5F7F4F6537E4E07E07D0F3A8954F5F5F4F401791
:140F2C00510788F30C94320B1801015010402220D9F73320E2
:140F4000C9F70895BD9ABF9ABC9A81E58DB90895A895000FA5
:140F5400111F000F111FC4981801232C33242FB8779BFECF39
:140F68000FB9779BFECFC49A08950E94370B580122242AB86E
:140F7C002BB886E880BD15014424552440E251EA67E070E0E8
:140F90005A924A923A922A928A019B010E94840A41E050E055
:140FA40060E070E018012901241A350A460A570A510129B805
:140FB800232C332420BC88E98AB980E88FBF899A0C943E0B2D
:140FCC00A8955D9BFECF0CB95E9BFECF5E9A08950E941C0B26
:140FE000C22E7801AA2407C0EA2DFF27EE0DFF1D0081ECDF5F
:140FF400A394AC14B8F30C94FD0A2A923A928A939A93EA9351
:14100800FA932FB62A925798209002023324822D8F5F8093FC
:14101C00020283E292E0E22DFF27E80FF91F2CB02082A895E6
:14103000579A29902FBEF991E991999189913990299018959E
:1410440022242092020208950091020208950E94370BAA241B
:141058004FEFA89566272FC0A89583E292E0E62FFF27E80F47
:14106C00F91F208030900302231411F5AA24A39402C0A394B8
:14108000A8952A2C3324E62FFF27E20DF31D83E292E0E80F6A
:14109400F91F208083E092E0EA2DFF27E80FF91F3080231488
:1410A80019F48A2D853038F38A2D853018F0462F4B5F06C037
:1410BC006395802F8450681708F4CCCF042F0C943E0B4A9396
:1410D000442702C0A8954395242E3324E2E0F0E0E219F30998
:1410E40088E092E0E80FF91F2080342E4424E02FFF273197A8
:1410F800E319F40983E292E0E80FF91F3080321411F4433097
:14110C0018F3433010F001E001C00027499108950E94450B1F
:14112000580194DF602F4FEFA8950C3018F40027112723C05B
:1411340084E1861708F419C0062FC7DF013009F014C0062FC2
:1411480084DFC02E4C2D0F3F09F40DC077DF862F841B835034
:14115C00F501808383E292E0042F1127080F191F06C06ADFE6
:141170002224F5012082002711270C944E0B0E94230B58010C
:14118400A50105C0FA0100811FDF4F5F5F4FFA0180818A3060
:14119800B9F7008117DF0C94280B2697CC2480E08A838B8321
:1411AC008C838D83AA24BB24662777274427552704EF11E06D
:1411C0000E9482070E94A70400E01BE40E94B9070E94A20717
:1411D4000E94BA060E94D7040E94F8018EEF93E09093140264
:1411E8008093130280E094E0909312028093110284E690E0C0
:1411FC00909318028093170280E991E0909316028093150237
:14121000222433243092200220921F0230921C0220921B02C7
:1412240081E090E090931E0280931D0290931A028093190203
:14123800309222022092210230920C0220920B0288E593E078
:14124C009093100280930F0285E890930E0280930D0208EB80
:141260001BE00E948207EE2407C00E94180204E110E00E9448
:141274008207E3948E2D8431B0F30E94A00418C10E94840608
:14128800002309F44EC0A8950E94C5040E948C06E02EFF2417
:14129C00C7018130E0E09E0789F08230E0E09E07C1F083306C
:1412B000E0E09E0751F18430E0E09E07D9F08530E0E09E0787
:1412C40069F12FC086E890E09983888324E830E002E810E0D2
:1412D8000E94A50224C080E890E0998388832EE730E00CE7BE
:1412EC0010E00E94A50219C08AE790E09983888328E730E0B5
:1413000006E710E00E9431030EC084E790E09983888322E74D
:1413140030E000E710E00E94310303C001E00E9482040E949A
:14132800D2048E010E5F1F4F0E94DD04E02ECE2CDD24C6011E
:14133C008130E0E09E070CF46AC08DE08C159D050CF465C088
:1413500086E590E0F6013197EE0FFF1FE80FF91F259034904C
:14136400F1010994A8950E94C50423E008EF10E00E94EE07BD
:1413780024E830E001E00E94BB034DC02EE730E002E00E944E
:14138C00BB0347C022E730E003E00E94200441C028E730E0A6
:1413A00004E00E9420043BC000270E94820437C02A803B80E9
:1413B400309214022092130230C02A803B80309212022092A9
:1413C800110229C02A803B80309218022092170222C02A807D
:1413DC003B8030921602209215021BC02A803B80309210028B
:1413F00020920F0214C02A803B8030920E0220920D020DC08D
:141404000E9418026801D0920C02C0920B020E94B50503C0C1
:14141800FFCF0E94A3020E94D2040E947806C02E002309F405
:14142C003EC00E946606C02E002311F0AF9801C0AF9A6B01D1
:141440006F5F7F4FC6018033E5E79E0780F1662777270E94D3
:1414540018026801560120900F02309010020215130510F4E4
:14146800969821C020900D0230900E02A214B30450F04F5F77
:14147C005F4F4630E0E05E07A0F044275527969A10C02090EC
:141490000D0230900E02A214B30448F44130E0E05E0728F012
:1414A4004427552702C0969AAF9AA8950E94A302E7CE26961D
:1414B80008953A932A931A930A930895689401C0E894EA925D
:1414CC00FA928A93EE24FF2480E1000F111FEE1CFF1CE21671
:1414E000F30618F0E21AF30A03958A95A1F716F40E2D1F2D1E
:1414F4008991F990E9900895E89401C0689430D0CC2409C039
:14150800E89401C068942AD037FD0E94600BB7FD52D07724EA
:14151C0088249924AA24BB2442D0C1F045D0B1F0E8E2000F53
:14153000111F221F331F771C881C991CAA1CBB1C881699061E
:14154400AA06BB0628F0881A990AAA0ABB0A0395EA9559F7E5
:1415580026F4082D192D2A2D3B2D13C07A928A929A92AA92C8
:14156C00BA92CA92EA938A939A93AA93BA938B859C85AD850F
:14158000BE85C32E0EF0CB260895C7FC0E94600BB991A99143
:1415940099918991E991C990B990A9909990899079902496A5
:1415A8000895E02FE12BE22BE32B0895E82FE92BEA2BEB2B69
:1415BC00089580959095A095B0958F5F9F4FAF4FBF4F089545
:1415D0000A921A928A939A93029FC001129F900D039F900D86
:1415E4008C0199918991199009900895A990B990C990D990FF
:1415F8000895A990B990C990D990E990F9900895A990B990DD
:14160C00C990D990E990F990499159910895A990B990C990CA
:14162000D990E990F990499159916991799108957A936A93DC
:141634005A934A93FA92EA92DA92CA92BA92AA9208955A93F6
:141648004A93BA92AA920895A990B9904991599108957A939C
:14165C006A935A934A930895499159916991799108957A93A4
:141670006A935A934A93BA92AA920895A990B9904991599134
:141684006991799108957A936A935A934A93DA92CA92BA92C9
:14169800AA920895A990B990C990D990499159916991799159
:1416AC0008950A92C8950A923196C895F02DE9910990099407
:1416C00000951095209530950F5F1F4F2F4F3F4F08950F923C
:1416D4000990002031F0000F111F221F331F0A94F8CF0F9052
:1416E80008950E945D0A0E94180B422F532FEE84FF84A42EC9
:1416FC00B52EAA2059F4BB2049F480E3EA85FB85808322242D
:1417100021820E2F1F2F6CC04030E0E05E0784F48E2D9F2DD7
:141724008A30E0E09E0751F4CC24C3948A2D9B2D809590954D
:141738000196A82EB92E01C0CC246A857B852E2D3F2D0A2DAB
:14174C001B2D0E94620A402F512F89E090E0801791074CF000
:14176000842F952FC096E62FF72F81936E2F7F2F09C0842F92
:14177400952F895A9F4FE62FF72F81936E2F7F2F2E2D3F2D6B
:141788000A2D1B2D0E94640AA02EB12EAA20B9F6BB20A9F61E
:14179C00CC2031F08DE2E62FF72F81936E2F7F2F462E572E2A
:1417B000615070402224E42DF52D2082AA84BB8412C0EA2D53
:1417C400FB2DC080E62FF72F2080EA2DFB2D2192AE2EBF2E13
:1417D800262E372E61507040E22DF32DC082A616B70658F3AE
:1417EC000A851B850E940D0B249608950E94180BC22ED32EF3
:14180000A02EB12EEA84FB844A2D5B2D2E2D3F2D0C2D1D2DF1
:141814000E94620A602F712F89E090E0801791074CF0862F8A
:14182800972FC096E42FF52F81934E2F5F2F09C0862F972FF6
:14183C00895A9F4FE42FF52F81934E2F5F2F2E2D3F2D0C2D71
:141850001D2D0E94640AC02ED12ECC20B9F6DD20A9F6442E94
:14186400552E415050402224E42DF52D2082CA2CDB2C12C0E2
:14187800EC2DFD2DE080E42FF52F2080EC2DFD2D2192CE2EF0
:14188C00DF2E242E352E41505040E22DF32DE082C416D5061F
:1418A00058F30A2D1B2D0C940D0B8BE890E0202E312E280EEC
:1418B400391EE22DF32DC895002D11270270107008954A936C
:1418C8005A93402F512F042F152F0E94550C0030010739F055
:1418DC00042F152F015610400F5B1F4F02C0042F152F5991DF
:1418F000499108950E945D0A0E94180B24976A897B89442782
:1419040055275FC1E889F9898081853241F00081EE85FF85DF
:141918000E94570B4F5F5F4F4DC183E293E0A82EB92E80E256
:14192C00C82E888999890196998B888BE82FF92FE080FF24EE
:141940008E2D9F2D8835E0E09E0709F46CC088E58E159F050D
:14195400A4F08E2D9F2D8534E0E09E0709F427C18534E0E0E8
:141968009E070CF440C08E2D9F2D8335E0E09E0709F4C5C0A0
:14197C0038C08E2D9F2D8336E0E09E0709F4ADC08436E0E0D6
:141990009E0709F436C08536E0E09E0709F409C18636E0E048
:1419A4009E0709F404C18936E0E09E0741F18F36E0E09E0748
:1419B80009F435C08037E0E09E0709F430C08336E0E09E0702
:1419CC0084F08E2D9F2D8337E0E09E0709F4BCC08537E0E0F8
:1419E0009E0709F18837E0E09E07E9F000C0E889F989008123
:1419F400EE85FF850E94570B4F5F5F4FDDC06E5F7F4FE62F3B
:141A0800F72F3297E080F1808AE090E0998388832E2D3F2D42
:141A1C000A2D1B2D0E94750B5BC06E5F7F4FE62FF72F32975B
:141A3000E080F180E889F9898081853759F48AE090E09983DE
:141A440088832E2D3F2D0A2D1B2D0E94FC0B44C0E889F9899D
:141A580080818F3659F488E090E0998388832E2D3F2D0A2D6A
:141A6C001B2D0E94FC0B34C0E889F9898081803741F480E33E
:141A8000EA2DFB2D819388E78193AE2EBF2E80E190E09983C6
:141A940088832E2D3F2D0A2D1B2D0E94FC0BE889F989808150
:141AA8008835C1F483E293E0A82EB92E0EC0EA2DFB2D008195
:141ABC0011270E94630CEA2DFB2D00838A2D9B2D0196A82E1F
:141AD000B92EEA2DFB2D2080222069F783E293E0A82EB92E05
:141AE40047C06E5F7F4FE62FF72F3297208031802A82022D1C
:141AF800EE85FF850E94570B4F5F5F4F5BC06E5F7F4FE62FB8
:141B0C00F72F3297E080F1808C2D8D32B9F40DE2EE85FF85FA
:141B20000E94570B4F5F5F4F0FC0EE2DFF2DC895002DEE853E
:141B3400FF850E94570B4F5F5F4F8E2D9F2D0196E82EF92E5E
:141B4800EE2DFF2DC895002061F734C06E5F7F4FE62FF72FA3
:141B5C003297A080B180AA2039F4BB2029F48BE891E0E82E72
:141B7000F92ED0CF8C2D8D32B1F40DE2EE85FF850E94570B94
:141B84004F5F5F4F0EC0EA2DFB2D0081EE85FF850E94570B68
:141B98004F5F5F4F8A2D9B2D0196A82EB92EEA2DFB2D20802B
:141BAC00222069F705C08DE991E0E82EF92EACCF88899989EC
:141BC0000196998B888BE889F9892080222009F09BCE042FD9
:141BD400152F24960E940D0B24960895E0913C03F0913D037D
:141BE8000193F0933D03E0933C0308950E945D0AAA92BA92B2
:141BFC0022972C803D8030923D0320923C038C2F9D2F08969B
:141C1000A82EB92EB982A8822E813F8108E810E00E947A0C27
:141C24002224E0913C03F0913D0320822C803D8000913C031A
:121C380010913D03021913092296B990A99024960895F1
:00000001FF
